:02000000852B4E
:10000800FF00030E8301BF000A08C0008A010B1C11
:100018000F2870230B108C1E13281A08BE004008E6
:0C0028008A003F0E8300FF0E7F0E0900CF
:0E003400F201F101F001F801F30100300800C3
:100042007B15FB1F2B280130F300F201F101F001B7
:08005200FA0DF20CFF3008006A
:08005A00FA1FF2130030080048
:06006200FB15FF30080051
:10006800A0017208031D49287108F2007008F10008
:10007800F001A0157208031D49287108F200F1016A
:10008800A01120167208031957282008F302031D2F
:10009800031C5B280310F21B5F28F00DF10DF20D15
:1000A800F30B4F285B280130FC001A20622802302D
:0E00B800FC00212062280430FC002D200800EE
:1000C600FB14FB1F6D28FF30F300F200F100F00077
:0800D600FA0DF20CFF300800E6
:1000DE00831203137008F8007108F000F101F201A9
:1000EE00F301FB01FC019630F300FA017008F100F8
:0C00FE007808F000F801F201342008003E
:0E010A00831203133D088A003C08820008009F
:1001180083120313FB017308031D77080319E328EF
:1001280072087606FA007708F3077E30031CA028C9
:10013800F3020318E628A328F302031CE92872082F
:10014800F8007108FC007008FD00F817F617031096
:10015800F201F101F0011830A0007D1CBD287408DF
:10016800F00775080318750FF10776080318760F5E
:10017800F207F20CF10CF00CF80CFC0CFD0C03105F
:10018800A00BB128F21BCD28F80DF00DF10DF20DE2
:10019800F3037B1B701CDF28F81FDF28F00A031904
:1001A800F10A0319F20A031DDF28F20CF10CF00C16
:1001B800F30A0319E628FA1FF2130030EB2801307E
:1001C8001A20EB2802306320EB280430212000009D
:0201D80008001D
:1001DA00831203137408003A031D08297508003AAC
:1001EA00031D08297608003A031D08297708003AF2
:1001FA00031D0829FF30F000FF30F1007F30F200C4
:10020A00FF30F300080083120313770803199729B4
:10021A00730803199A29720876068039FA00F217C8
:10022A00F617A0017208F8007108FC007008FD00BA
:10023A007408FD027508031C750FFC027608031C7E
:10024A00760FF802F801FC01FD01031C33290310A3
:10025A00F20CF10CF00CF80C0130A0007708F30254
:10026A00031C3D297E302007F30703189D294229E4
:10027A007E302007F307031CA0291830FA07FD0D6A
:10028A00FC0DF80DF00DF10DF20DA00D7408F00241
:10029A007508031C750FF1027608031C760FF2022B
:1002AA00760DA004201C5B297D1466297408F007CA
:1002BA0075080318750FF10776080318760AF2070E
:1002CA007D10FA031F307A05031D44297B1B7D1C10
:1002DA008D290310F00DF10DF20DA00D7408F00236
:1002EA007508031C750FF1027608031C760FF202DB
:1002FA00760D20040139FD070318FC0A0319F80AD0
:10030A00031D8D29F80CFC0CFD0CF30A03199D2919
:10031A00FA1FF8137808F2007C08F1007D08F00053
:10032A000030A22901303120A22902301A20A22944
:0E033A0004306320A2290830212000000800B2
:1003480083120313A301071CB129871CB1290614C2
:100358008610061586110130A100071CB629871CD6
:10036800B629352A2208003A031D352A0815123005
:10037800FC00F330FD00FD0BBF29FC0BBF298715DE
:100388001230FC00F330FD00FD0BC829FC0BC82916
:1003980088100814881507120718D9298718D92929
:1003A8002208003A031DD929D0290718E2298718FD
:1003B800E2292208013A0319E229132A2208013AFC
:1003C800031DF1290818EA298810EB298814071A4F
:1003D800EF298811F0298815132A071CFA2908180B
:1003E800F7298810F829881406148610871C032A10
:1003F800071A002A8811012A881506158611071C74
:100408000A2A871C0A2A0130A100132A4830FC0056
:10041800CF30FD00FD0B0E2AFC0B0E2AD92908113E
:100428001230FC00F330FD00FD0B182AFC0B182AD3
:1004380087111230FC00F330FD00FD0B212AFC0B64
:10044800212A88100810881107120230FB00683032
:10045800FC000D30FD00FD0B2F2AFC0B2F2AFB0B97
:040468002F2A08002F
:10046C0083120313A301081E422A881E422A061077
:10047C00861406118615A101081E472A881E472AD4
:10048C00C52A2208013A031DC52A08151230FC00A2
:10049C00F330FD00FD0B502AFC0B502A871512304F
:1004AC00FC00F330FD00FD0B592AFC0B592A881473
:1004BC00081088110716081A6A2A881A6A2A22084C
:1004CC00013A031D6A2A612A081A732A881A732AA8
:1004DC002208003A0319732AA32A2208003A031DA2
:1004EC00822A08187B2A88107C2A8814071A802AEA
:1004FC008811812A8815A32A081E8B2A0818882A95
:10050C008810892A881486140610881E942A071AC3
:10051C00912A8811922A881586150611081E9A2A86
:10052C00881E9A2AA101A32A4830FC00CF30FD0076
:10053C00FD0B9E2AFC0B9E2A6A2A08111230FC0025
:10054C00F330FD00FD0BA82AFC0BA82A87111230F2
:10055C00FC00F330FD00FD0BB12AFC0BB12A881016
:10056C000810881107120230FB006830FC000D30B7
:10057C00FD00FD0BBF2AFC0BBF2AFB0BBF2A08009A
:10058C0083120313FA017308031D7A147708031DF1
:10059C00FA147A080319122B033A0319DD2A7A1874
:1005AC00DA2AF61F102B0E2BF21F0E2B102B7208B3
:1005BC008039FA00F21376088039F6137A0603199B
:1005CC00EB2A7A0803190E2B102B770873020319E8
:1005DC00F22A031C062B0A2B760872020319F92A3D
:1005EC00031C062B0A2B750871020319002B031C24
:1005FC00062B0A2B740870020319122B03180A2BF2
:10060C00FA080319102B0E2BFA0803190E2B102BBA
:10061C000314080003100800031403150800080055
:10062C0085208A110A128000840ABC0A0319BD0AAB
:08063C00F003031D162B08005A
:10064400831203134E08003A031D2B2B81309F00A5
:10065400382B4E08013A031D322B89309F00382B6A
:100664004E08023A031D382B91309F005A30FC008B
:10067400C330FD00FD0B3C2BFC0B3C2B1F151F1D39
:10068400442B412B1E08CF0083161E088312D00072
:100694004F08B600B7013608F100F0017008B60043
:1006A4007108B7005008F0040030F1047008B60077
:1006B4007108B7006F203808F4003908F5003A08CB
:1006C400F6003B08F7008C200030F4000030F50001
:0C06D4007A30F6008830F700ED200800B6
:1006E00083120313061B762BB501782B0130B5005E
:1006F000061A802B861A802BA2010130A300842BBE
:0A0700000130A2000130A300080040
:10070A0083120313A101A2010130A300A401313015
:10071A00A5004130A6004230A7004330A80044306B
:10072A00A9004530AA004630AB004730AC0048303B
:10073A00AD004930AE004A30AF004B30B0004C300B
:10074A00B1004D30B2004E30B3004F30B400B501A5
:10075A00B601B701F630B8002830B9001C30BA002B
:10076A008130BB00C101C201C301C401C501C60178
:10077A00C701C801C901CA01CB01CC01CD01831649
:10078A000610861006118611061686160617861793
:10079A0007148714071507148714071187110712FE
:1007AA000713871708108810081188110816881669
:1007BA00C0309F00813083129F0024308316980036
:1007CA009030831298000530831699009816831288
:1007DA0098170B108B1583168C160B178B17831211
:1007EA00071106108610061186110030061A01300C
:1007FA00A200F001861AF00A7008A2040030061B53
:10080A000130B5002430FC00E730FD00FD0B0B2C55
:10081A00FC0B0B2C1F150F30FB000730FC009A3025
:10082A00FD00FD0B162CFC0B162CFB0B162C0000E6
:10083A0004308706CE0122237008C2007108C30063
:10084A007208C4007308C5004830FC00CF30FD00B0
:10085A00FD0B2D2CFC0B2D2C0130CE002223700811
:10086A00C6007108C7007208C8007308C90048307A
:10087A00FC00CF30FD00FD0B402CFC0B402C02305D
:10088A00CE0022237008CA007108CB007208CC007F
:10089A007308CD004830FC00CF30FD00FD0B532C0F
:1008AA00FC0B532C4208F4004308F5004408F600F8
:1008BA004508F7000030F0000030F1006030F20027
:1008CA008030F300C622013003180030F0007008AF
:1008DA00031DA02C4608F4004708F5004808F60056
:1008EA004908F7000030F0000030F1006030F200F3
:1008FA008030F300C622013003180030F00070087F
:10090A00031DA02C4A08F4004B08F5004C08F60019
:10091A004D08F7000030F0000030F1006030F200BE
:10092A008030F300C622013003180030F00070084E
:10093A00031DA02CA32C0130A400A42CA40122087E
:10094A00003A031DB52C2308013A031DB52C2430A7
:10095A00FC00E730FD00FD0BB02CFC0BB02CA421F1
:10096A002208013A031DC62C2308013A031DC62C8E
:10097A002430FC00E730FD00FD0BC12CFC0BC12C20
:10098A0036222208003A031DD82C2408003A031DF7
:10099A00D82C3508003A031DD82C2108003A031D2B
:1009AA00D82CC101F42D2208013A031DEB2C24088E
:1009BA00003A031DEB2C3508003A031DEB2C2108E5
:1009CA00003A031DEB2C0130C100F42D2208003A35
:1009DA00031DFE2C2408013A031DFE2C3508003A9B
:1009EA00031DFE2C2108003A031DFE2C0230C10013
:1009FA00F42D2208013A031D112D2408013A031D82
:100A0A00112D3508003A031D112D2108003A031D46
:100A1A00112D0330C100F42D2208003A031D242DA4
:100A2A002408003A031D242D3508013A031D242DFC
:100A3A002108003A031D242D0430C100F42D220898
:100A4A00013A031D372D2408003A031D372D3508B6
:100A5A00013A031D372D2108003A031D372D0530B1
:100A6A00C100F42D2208003A031D4A2D2408013A38
:100A7A00031D4A2D3508013A031D4A2D2108003A63
:100A8A00031D4A2D0630C100F42D2208013A031D28
:100A9A005D2D2408013A031D5D2D3508013A031D19
:100AAA005D2D2108003A031D5D2D0730C100F42D8C
:100ABA002208003A031D702D2408003A031D702DE8
:100ACA003508003A031D702D2108013A031D702DC7
:100ADA000830C100F42D2208013A031D832D240891
:100AEA00003A031D832D3508003A031D832D210882
:100AFA00013A031D832D0930C100F42D2208003A62
:100B0A00031D962D2408013A031D962D3508003A37
:100B1A00031D962D2108013A031D962D0A30C100A6
:100B2A00F42D2208013A031DA92D2408013A031DB8
:100B3A00A92D3508003A031DA92D2108013A031DE4
:100B4A00A92D0B30C100F42D2208003A031DBC2D3B
:100B5A002408003A031DBC2D3508013A031DBC2D9B
:100B6A002108013A031DBC2D0C30C100F42D2208C6
:100B7A00013A031DCF2D2408003A031DCF2D350855
:100B8A00013A031DCF2D2108013A031DCF2D0D3047
:100B9A00C100F42D2208003A031DE22D2408013A6F
:100BAA00031DE22D3508013A031DE22D2108013A01
:100BBA00031DE22D0E30C100F42D2208013A031D57
:100BCA00F42D2408013A031DF42D3508013A031DBA
:100BDA00F42D2108013A031DF42D0F30C100033012
:100BEA00FB00CF30FC001D30FD00FD0BFA2DFC0B85
:100BFA00FA2DFB0BFA2D4108253E840000089900C6
:100C0A000C1A082E052E0330FB00CF30FC001D30D5
:100C1A00FD00FD0B0E2EFC0B0E2EFB0B0E2E1D2CBB
:020C2A00152E85
:02400E004A2F37
:00000001FF
